:020000040000FA
:0400000038EF00F0E5
:060008004D82F8EF24F028
:100018004D80D8CF0AF0E8CF0BF0E0CF0CF0FACF44
:100028000DF0FBCF0EF0D9CF0FF0DACF10F0F3CFF1
:1000380011F0F4CF12F09DB09EA002D037EC2DF055
:1000480012C0F4FF11C0F3FF10C0DAFF0FC0D9FFD0
:100058000EC0FBFF0DC0FAFF0CC0E0FF0BC0E8FFAD
:100068000AC0D8FF4D901000A6EF28F0010E90ECC2
:100078002EF00009D8B475EF07F08970030E146EDE
:10008800840E136E010ED3EC2DF075EF07F058ECCB
:100098002FF00009D8B42AD0020E01018D6F020E8C
:1000A8000001B26FBC0EB16F49EC2EF0BCEC2FF022
:1000B800000E0001B26F010EB16F5BEC2EF0000E66
:1000C8000001B26F010EB16F6DEC2EF0030E00014E
:1000D800B26FE80EB16F37EC2EF0000E146E460EBC
:1000E800136E030ED3EC2DF092EF07F0010E010111
:1000F8008D6F92EF07F0FE0E0101D06FBEEC2FF06E
:1001080092EF07F0030E01018D6F8F0E146E010E32
:10011800156E86EC24F00009D8B492EF07F01FECB6
:100128002DF0BEEC2FF0000E0101CF6F8F0E1E6E6A
:10013800010E1F6E1A0EF66E7D0EF76E0900F5CFD2
:1001480020F00A00F5CF21F0DAEC27F01E501F103E
:10015800D8B405D0020E01018E6F010ECF6F8F0E3D
:100168001E6E010E1F6E1E0EF66E7D0EF76E0900D6
:10017800F5CF20F00A00F5CF21F0DAEC27F01E5079
:100188001F10D8B40BD0020E01018E19D8A402D0CA
:10019800030E01D0000E8E6F010ECF6F8F0E1E6EF4
:1001A800010E1F6E220EF66E7D0EF76E0900F5CF5A
:1001B80020F00A00F5CF21F0DAEC27F01E501F10CE
:1001C800D8B492EF07F0030E01018E19D8A402D01B
:1001D800050E01D0000E8E6F010ECF6F92EF07F063
:1001E800020E01018D6F030E90EC2EF00009D8B4B9
:1001F80092EF07F089A402D0010E01D0000EFF0A89
:100208000001BB6FBB47BB478950BB19FB0BBB1930
:10021800896E0101CF51D8B4D4EF06F01E0E00014B
:10022800A96F010EAA6F4E0EF66E7D0EF76E0900CD
:10023800F5CFABF00A00F5CFACF0160EF66E7D0EDA
:10024800F76E0900F5CFADF00A00F5CFAEF0B1ECCE
:1002580029F01E0E0001B16F010EB26F2AEC2FF0CB
:100268001E0E0001A96F010EAA6F4E0EF66E7D0ECE
:10027800F76E0900F5CFABF00A00F5CFACF08F0EA2
:10028800AD6F010EAE6FB1EC29F01E0E0001B16F1B
:10029800010EB26F2AEC2FF0B3EF06F01E0EA96F15
:1002A800010EAA6F500EF66E7D0EF76E0900F5CF9F
:1002B800ABF00A00F5CFACF04A0EF66E7D0EF76E85
:1002C8000900F5CFADF00A00F5CFAEF0B1EC29F09A
:1002D8001E0E0001B16F010EB26F2AEC2FF0D0EFA5
:1002E80006F01FEC2DF01C0EF66E7D0EF76E090061
:1002F800F5CF1AF00A00F5CF1BF0000E1C6E69EC62
:1003080028F0D0EF06F01FEC2DF0200EF66E7D0ED3
:10031800F76E0900F5CF1AF00A00F5CF1BF0000EB2
:100328001C6E69EC28F0D0EF06F0BCEC2FF01E0E26
:100338000001A96F010EAA6F500EF66E7D0EF76EC2
:100348000900F5CFABF00A00F5CFACF0260EF66E3B
:100358007D0EF76E0900F5CFADF00A00F5CFAEF0CF
:10036800B1EC29F01E0E0001B16F010EB26F2AEC3C
:100378002FF01E0E0001A96F010EAA6F520EF66E25
:100388007D0EF76E0900F5CFABF00A00F5CFACF0A3
:100398002C0EF66E7D0EF76E0900F5CFADF00A0053
:1003A800F5CFAEF0B1EC29F01E0E0001B16F010ED1
:1003B800B26F2AEC2FF022D01E0E0001A96F010E99
:1003C800AA6F540EF66E7D0EF76E0900F5CFABF0EE
:1003D8000A00F5CFACF0140EF66E7D0EF76E09002C
:1003E800F5CFADF00A00F5CFAEF0B1EC29F01E0E56
:1003F8000001B16F010EB26F2AEC2FF00101D1514B
:10040800D8B4DAD71E0E0001A96F010EAA6F4E0EDE
:10041800F66E7D0EF76E0900F5CFABF00A00F5CF4A
:10042800ACF0160EF66E7D0EF76E0900F5CFADF046
:100438000A00F5CFAEF0B1EC29F01E0E0001B16F45
:10044800010EB26F2AEC2FF0BEEC2FF0000E010166
:10045800D16F000E196E640E186EF4EC2EF0BCEC21
:100468002FF01FEC2DF0340EF66E7D0EF76E09009E
:10047800F5CF1AF00A00F5CF1BF0010E1C6E69ECDF
:1004880028F0360EF66E7D0EF76E0900F5CF1AF0DD
:100498000A00F5CF1BF0010E1C6E69EC28F0380E2F
:1004A800F66E7D0EF76E0900F5CF1AF00A00F5CF4B
:1004B8001BF0010E1C6E69EC28F03A0EF66E7D0EEC
:1004C800F76E0900F5CF1AF00A00F5CF1BF0010E00
:1004D8001C6E69EC28F03C0EF66E7D0EF76E090076
:1004E800F5CF1AF00A00F5CF1BF0010E1C6E69EC6F
:1004F80028F01E0E0001A96F010EAA6F500EF66EAD
:100508007D0EF76E0900F5CFABF00A00F5CFACF021
:10051800240EF66E7D0EF76E0900F5CFADF00A00D9
:10052800F5CFAEF0B1EC29F01E0E0001B16F010E4F
:10053800B26F2AEC2FF01E0E0001A96F010EAA6FF0
:10054800520EF66E7D0EF76E0900F5CFABF00A007D
:10055800F5CFACF02A0EF66E7D0EF76E0900F5CFDA
:10056800ADF00A00F5CFAEF0B1EC29F01E0E000197
:10057800B16F010EB26F2AEC2FF022D01E0E0001CF
:10058800A96F010EAA6F540EF66E7D0EF76E090064
:10059800F5CFABF00A00F5CFACF0140EF66E7D0E79
:1005A800F76E0900F5CFADF00A00F5CFAEF0B1EC6B
:1005B80029F01E0E0001B16F010EB26F2AEC2FF068
:1005C8000101D151D8B4DAD71E0E0001A96F010E6E
:1005D800AA6F540EF66E7D0EF76E0900F5CFABF0DC
:1005E8000A00F5CFACF0160EF66E7D0EF76E090018
:1005F800F5CFADF00A00F5CFAEF0B1EC29F01E0E44
:100608000001B16F010EB26F2AEC2FF0BEEC2FF093
:10061800000E0101D16F000E196E640E186EF4EC15
:100628002EF0BCEC2FF01FEC2DF03E0EF66E7D0E7A
:10063800F76E0900F5CF1AF00A00F5CF1BF0010E8E
:100648001C6E69EC28F0400EF66E7D0EF76E090000
:10065800F5CF1AF00A00F5CF1BF0010E1C6E69ECFD
:1006680028F01E0E0001A96F010EAA6F4E0EF66E3D
:100678007D0EF76E0900F5CFABF00A00F5CFACF0B0
:10068800160EF66E7D0EF76E0900F5CFADF00A0076
:10069800F5CFAEF0B1EC29F01E0E0001B16F010EDE
:1006A800B26F2AEC2FF01E0E0001A96F010EAA6F7F
:1006B800500EF66E7D0EF76E0900F5CFABF00A000E
:1006C800F5CFACF0160EF66E7D0EF76E0900F5CF7D
:1006D800ADF00A00F5CFAEF0B1EC29F01E0E000126
:1006E800B16F010EB26F2AEC2FF01E0E0001A96F38
:1006F800010EAA6F520EF66E7D0EF76E0900F5CF49
:10070800ABF00A00F5CFACF0160EF66E7D0EF76E64
:100718000900F5CFADF00A00F5CFAEF0B1EC29F045
:100728001E0E0001B16F010EB26F2AEC2FF00F0EF2
:100738000001BF6F2AD01E0EA96F010EAA6F560EB8
:10074800F66E7D0EF76E0900F5CFABF00A00F5CF17
:10075800ACF0320EF66E7D0EF76E0900F5CFADF0F7
:100768000A00F5CFAEF0BFC0AFF0B06BB1EC29F026
:100778001E0E0001B16F010EB26F2AEC2FF0030EAE
:10078800196EE80E186EF4EC2EF00001BF07BF29B1
:10079800D8A4D1D71FEC2DF0420EF66E7D0EF76E61
:1007A8000900F5CF1AF00A00F5CF1BF0010E1C6EF8
:1007B80069EC28F0010E196E2C0E186EF4EC2EF070
:1007C800030E146EE80E136E020ED3EC2DF00AD051
:1007D800020E90EC2EF00009D8B404D0010E0101ED
:1007E8008D6F09D08F0E146E010E156E86EC24F0F5
:1007F8000009D8B4EDD7030E146EE80E136E020E7E
:10080800D3EC2DF00AD0020E90EC2EF00009D8B4EB
:1008180004D0010E01018D6F09D08F0E146E010EE8
:10082800156E86EC24F00009D8B4EDD701018D05CA
:10083800D8B4B2D21FEC2DF01E0E0001A96F010E24
:10084800AA6F4E0EF66E7D0EF76E0900F5CFABF06F
:100858000A00F5CFACF0160EF66E7D0EF76E0900A5
:10086800F5CFADF00A00F5CFAEF0B1EC29F01E0ED1
:100878000001B16F010EB26F2AEC2FF01E0E0001BD
:10088800A96F010EAA6F4E0EF66E7D0EF76E090067
:10089800F5CFABF00A00F5CFACF08F0EAD6F010EBF
:1008A800AE6FB1EC29F01E0E0001B16F010EB26FF0
:1008B8002AEC2FF08F0E1E6E010E1F6E300EF66E94
:1008C8007D0EF76E0900F5CF20F00A00F5CF21F074
:1008D800DAEC27F01EC0C6F01FC0C7F00001C651F1
:1008E800C711D8B479D020EE04F0C651D926C75123
:1008F800DA22200EDF6E20EE05F0C651D926C75148
:10090800DA22000EDF6EF80EC625AC6FFF0EC72187
:10091800AD6FECEC1EF0ACC0BDF0ADC0BEF09A0EF1
:100928000001BD1903E1020EBE19D8A4B2D01E0EF3
:10093800A96F010EAA6F500EF66E7D0EF76E0900B4
:10094800F5CFABF00A00F5CFACF04A0EF66E7D0E8F
:10095800F76E0900F5CFADF00A00F5CFAEF0B1ECB7
:1009680029F01E0E0001B16F010EB26F2AEC2FF0B4
:100978000F0E0001BF6F2AD01E0EA96F010EAA6FBD
:10098800560EF66E7D0EF76E0900F5CFABF00A0035
:10099800F5CFACF0180EF66E7D0EF76E0900F5CFA8
:1009A800ADF00A00F5CFAEF0BFC0AFF0B06BB1EC60
:1009B80029F01E0E0001B16F010EB26F2AEC2FF064
:1009C800010E196E4D0E186EF4EC2EF00001BF07E3
:1009D800BF29D8A4D1D758D0030EBE6FE70EBD6F7C
:1009E8001E0EA96F010EAA6F500EF66E7D0EF76EE1
:1009F8000900F5CFABF00A00F5CFACF04A0EF66E61
:100A08007D0EF76E0900F5CFADF00A00F5CFAEF018
:100A1800B1EC29F01E0E0001B16F010EB26F2AEC85
:100A28002FF00F0E0001BF6F2AD01E0EA96F010E06
:100A3800AA6F560EF66E7D0EF76E0900F5CFABF075
:100A48000A00F5CFACF0180EF66E7D0EF76E0900B1
:100A5800F5CFADF00A00F5CFAEF0BFC0AFF0B06B88
:100A6800B1EC29F01E0E0001B16F010EB26F2AEC35
:100A78002FF0010E196E4D0E186EF4EC2EF00001D9
:100A8800BF07BF29D8A4D1D7FF00010E01018D6F80
:100A980083D11E0EA96F010EAA6F500EF66E7D0E41
:100AA800F76E0900F5CFABF00A00F5CFACF0160EE3
:100AB800F66E7D0EF76E0900F5CFADF00A00F5CFA2
:100AC800AEF0B1EC29F01E0E0001B16F010EB26F4D
:100AD8002AEC2FF01E0E0001A96F010EAA6FA60EB8
:100AE800F66E7D0EF76E0900F5CFABF00A00F5CF74
:100AF800ACF0BDC0ADF0BEC0AEF0B1EC29F01E0E3A
:100B08000001B16F010EB26F2AEC2FF0170E196EAB
:100B1800700E186EF4EC2EF0340EF66E7D0EF76E35
:100B28000900F5CF1AF00A00F5CF1BF0010E1C6E74
:100B380069EC28F01E0E0001A96F010EAA6F500E75
:100B4800F66E7D0EF76E0900F5CFABF00A00F5CF13
:100B5800ACF0280EF66E7D0EF76E0900F5CFADF0FD
:100B68000A00F5CFAEF0B1EC29F01E0E0001B16F0E
:100B7800010EB26F2AEC2FF01E0E0001A96F010EB4
:100B8800AA6F520EF66E7D0EF76E0900F5CFABF028
:100B98000A00F5CFACF02E0EF66E7D0EF76E09004A
:100BA800F5CFADF00A00F5CFAEF0B1EC29F01E0E8E
:100BB8000001B16F010EB26F2AEC2FF022D01E0E89
:100BC8000001A96F010EAA6F540EF66E7D0EF76E26
:100BD8000900F5CFABF00A00F5CFACF0140EF66EB5
:100BE8007D0EF76E0900F5CFADF00A00F5CFAEF037
:100BF800B1EC29F01E0E0001B16F010EB26F2AECA4
:100C08002FF00101D151D8B4DAD71E0E0001A96F17
:100C1800010EAA6F4E0EF66E7D0EF76E0900F5CF27
:100C2800ABF00A00F5CFACF0160EF66E7D0EF76E3F
:100C38000900F5CFADF00A00F5CFAEF0B1EC29F020
:100C48001E0E0001B16F010EB26F2AEC2FF0BEEC40
:100C58002FF0000E0101D16F000E196E640E186E90
:100C6800F4EC2EF0BCEC2FF01FEC2DF01E0E000162
:100C7800A96F010EAA6FA40EF66E7D0EF76E09001D
:100C8800F5CFABF00A00F5CFACF0BDC0ADF0BEC0FB
:100C9800AEF0B1EC29F01E0E1A6E010E1B6E010E9D
:100CA8001C6E69EC28F0440EF66E7D0EF76E090096
:100CB800F5CF1AF00A00F5CF1BF0010E1C6E69EC97
:100CC80028F0460EF66E7D0EF76E0900F5CF1AF085
:100CD8000A00F5CF1BF0010E1C6E69EC28F0480ED7
:100CE800F66E7D0EF76E0900F5CF1AF00A00F5CF03
:100CF8001BF0010E1C6E69EC28F0BEEC2FF0000E04
:100D0800196E640E186EF4EC2EF0BCEC2FF0050E84
:100D180001018D6F080E8E6F3FD01E0EA96F010E58
:100D2800AA6FA80EF66E7D0EF76E0900F5CFABF030
:100D38000A00F5CFACF04C0EF66E7D0EF76E09008A
:100D4800F5CFADF00A00F5CFAEF0B1EC29F01E0EEC
:100D58000001B16F010EB26F2AEC2FF01DD0010116
:100D68008E510001BB6FBC6BBC51000AD8A414D0D3
:100D7800BB51000AD8B452EF01F0020AD8B475EF9B
:100D880001F0010AD8B487EF01F0060AD8B499EF48
:100D980001F00D0AD8B4C1D7000E0101CF6F6CD095
:100DA800D151D8B40BD0BEEC2FF0000E0101D16F99
:100DB800000E196E640E186EF4EC2EF01E0E000173
:100DC800A96F010EAA6F580EF66E7D0EF76E090018
:100DD800F5CFABF00A00F5CFACF0100EF66E7D0E35
:100DE800F76E0900F5CFADF00A00F5CFAEF0E30ECF
:100DF800AF6F7F0EB06FB1EC29F01E0E0001B16F1E
:100E0800010EB26F2AEC2FF01E0E0001A96F010E21
:100E1800AA6F500EF66E7D0EF76E0900F5CFABF097
:100E28000A00F5CFACF0FB0EAD6F7E0EAE6FB1ECE5
:100E380029F01E0E0001B16F010EB26F2AEC2FF0DF
:100E48001E0E0001A96F010EAA6F520EF66E7D0EDE
:100E5800F76E0900F5CFABF00A00F5CFACF0600EE5
:100E6800AD6F7F0EAE6FB1EC29F01E0E0001B16FB1
:100E7800010EB26F2AEC2FF0000E146E460E136EA0
:100E8800030ED3EC2DF04AD01E0E0001A96F010EFF
:100E9800AA6FA40EF66E7D0EF76E0900F5CFABF0C3
:100EA8000A00F5CFACF0BDC0ADF0BEC0AEF0B1ECFD
:100EB80029F01E0E0001B16F010EB26F2AEC2FF05F
:100EC800000E196E640E186EF4EC2EF0BCEC2FF0C8
:100ED800050E196E350E186EF4EC2EF0BEEC2FF0E0
:100EE800D3D701018D510001BB6FBC6BBC51000A07
:100EF800D8A414D0BB51000AD8B44BEF00F0010AB3
:100F0800D8B47FEF00F0030AD8B486EF00F0010AE6
:100F1800D8B4F4EF00F0060AD8B4B6D70101D2511C
:100F2800D8B427D0BEEC2FF0000E0101D26F020E0C
:100F38008E6F010ECF6F000E0001B26F010EB16F00
:100F48005BEC2EF08F0E0001A96F010EAA6F120E36
:100F5800F66E7D0EF76E0900F5CFABF00A00F5CFFF
:100F6800ACF0B1EC29F0000E196E190E186EF4EC05
:100F78002EF0BCEC2FF012007EC0D9FF7FC0DAFF44
:100F8800DECFF6FFDDCFF7FF0800F550250AD8A41D
:100F9800EBEF0EF07EC0D9FF7FC0DAFFDE2A000E2D
:100FA800DD22000E3C6E000E3B6E3BC03FF03CC0A5
:100FB80040F03D683E68000E0001896F000E14D0B5
:100FC8003F807EC0D9FF7FC0DAFFDE2A000EDD2217
:100FD8002ED03F82F6D73F84F4D73F86F2D73F889A
:100FE800F0D7000E896F010E886F21D07EC0D9FF1F
:100FF8007FC0DAFFDECFF6FFDDCFF7FF0800F55040
:10100800826F836B8351000AD8A4EBD78251200AE0
:10101800D8B4E3D7030AD8B4E2D7080AD8B4DBD7E0
:10102800060AD8B4CDD71D0AD8B4D3D7DAD7885191
:101038008911D8B4DBD73FB03F927EC0D9FF7FC0BB
:10104800DAFFDECFF6FFDDCFF7FF0800F5502A0AFA
:10105800D8A423D07EC0D9FF7FC0DAFFDE2A000ED5
:10106800DD2280C0D9FF81C0DAFFDFCF82F0020E17
:10107800DE26DFCF83F0000EDD2282C0D9FF83C0D9
:10108800DAFFDECF3BF0DDCF3CF03CAE40D03F8016
:101098003B6C3C1ED8B03C2A3AD07EC0D9FF7FC0FA
:1010A800DAFFDECF1AF0DDCF1BF0B5EC21F01AC065
:1010B8003BF01BC03CF007D07EC0D9FF7FC0DAFFF1
:1010C800DE2A000EDD22D00E0001826FFF0E836F34
:1010D8007EC0D9FF7FC0DAFFDECFF6FFDDCFF7FF96
:1010E8000800F550846F856B8251842783518523CE
:1010F800855106E10A0E845DD8B002D0010E01D0F8
:10110800000E8A6F8B6B8A518B11D8A4D5D77EC0FD
:10111800D9FF7FC0DAFFDECFF6FFDDCFF7FF08008B
:10112800F5502E0AD8A46ED0000E3E6E000E3D6E0D
:101138007EC0D9FF7FC0DAFFDE2A000EDD227EC026
:10114800D9FF7FC0DAFFDECFF6FFDDCFF7FF08005B
:10115800F5502A0AD8A41CD07EC0D9FF7FC0DAFF78
:10116800DE2A000EDD2280C0D9FF81C0DAFFDFCF82
:1011780082F0020EDE26DFCF83F0000EDD2282C071
:10118800D9FF83C0DAFFDECF3DF0DDCF3EF03AD0A5
:101198007EC0D9FF7FC0DAFFDECF1AF0DDCF1BF0AB
:1011A800B5EC21F01AC03DF01BC03EF007D07EC060
:1011B800D9FF7FC0DAFFDE2A000EDD22D00E000143
:1011C800826FFF0E836F7EC0D9FF7FC0DAFFDECF4C
:1011D800F6FFDDCFF7FF0800F550846F856B82516D
:1011E800842783518523855106E10A0E845DD8B092
:1011F80002D0010E01D0000E8C6F8D6B8C518D11B9
:10120800D8A4D5D77EC0D9FF7FC0DAFFDECFF6FFDE
:10121800DDCFF7FF0800F550630AD8A426D07EC0BA
:10122800D9FF7FC0DAFFDE2A000EDD2280C0D9FF99
:1012380081C0DAFFDFCF82F0020EDE26DFCF83F037
:10124800000EDD2282C0D9FF83C0DAFFDF50986F1D
:101258007CC030F07DC031F098C032F078EC2AF0D4
:1012680030C07CF031C07DF012007EC0D9FF7FC055
:10127800DAFFDECF13F0DDCF14F0CB0E156E7F0E44
:10128800166E000E186E030E176E13EC24F0135032
:101298001410D8B416D07EC0D9FF7FC0DAFFDECFD5
:1012A80013F0DDCF14F0CF0E156E7F0E166E000E04
:1012B800186E030E176E13EC24F013501410D8A4F4
:1012C80040D0030E7EC0D9FF7FC0DAFFDE26000EB5
:1012D800DD2280C0D9FF81C0DAFFDFCF82F0020EA5
:1012E800DE26DFCF83F0000EDD2282C0D9FF83C067
:1012F800DAFFDF5000018E6F000E8EBFFF0E8F6F7A
:10130800906F916F926F936F946F956F7CC030F070
:101318007DC031F08EC032F08FC033F090C034F011
:1013280091C035F092C036F093C037F094C038F0D1
:1013380095C039F0D2EC1BF030C07CF031C07DF0A4
:1013480012007EC0D9FF7FC0DAFFDECF13F0DDCFF9
:1013580014F0CC0E156E7F0E166E000E186E020E6F
:10136800176E13EC24F013501410D8B416D07EC0A6
:10137800D9FF7FC0DAFFDECF13F0DDCF14F0D00E37
:10138800156E7F0E166E000E186E020E176E13EC99
:1013980024F013501410D8A407D0020E7EC0D9FF31
:1013A8007FC0DAFFDE261FD07EC0D9FF7FC0DAFFFC
:1013B800DECFF6FFDDCFF7FF0800F550640AD8B49A
:1013C8000DD07EC0D9FF7FC0DAFFDECFF6FFDDCFBC
:1013D800F7FF0800F550690AD8A420D07EC0D9FFCD
:1013E8007FC0DAFFDE2A000EDD2280C0D9FF81C06F
:1013F800DAFFDFCF82F0020EDE26DFCF83F0000EA9
:10140800DD2282C0D9FF83C0DAFFDECF8EF0DDCFC8
:101418008FF00001000E8FBFFF0E72D77EC0D9FF7C
:101428007FC0DAFFDECF13F0DDCF14F0EA0E156EC1
:101438007F0E166E000E186E020E176E13EC24F057
:1014480013501410D8B416D07EC0D9FF7FC0DAFF6D
:10145800DECF13F0DDCF14F0ED0E156E7F0E166E95
:10146800000E186E020E176E13EC24F013501410B1
:10147800D8A428D0020E7EC0D9FF7FC0DAFFDE26AE
:10148800000EDD2280C0D9FF81C0DAFFDFCF82F0F5
:10149800020EDE26DFCF83F0000EDD2282C0D9FFE8
:1014A80083C0DAFFDECF84F0DDCF85F084C08EF014
:1014B80085C08FF00001906B916B926B936B946B6E
:1014C800956B24D77EC0D9FF7FC0DAFFDECF13F03B
:1014D800DDCF14F0D70E156E7F0E166E000E186E47
:1014E800030E176E13EC24F013501410D8A43FD039
:1014F800030E7EC0D9FF7FC0DAFFDE26000EDD2294
:1015080080C0D9FF81C0DAFFDFCF82F0020EDE266D
:10151800DFCF83F0000EDD2282C0D9FF83C0DAFF5F
:10152800DF500001846F8451996F9A6B9B6B9C6BA1
:101538009D6B9E6B9F6BA06B7CC030F07DC031F0C3
:1015480099C032F09AC033F09BC034F09CC035F09B
:101558009DC036F09EC037F09FC038F0A0C039F06B
:10156800AFEC1FF030C07CF031C07DF012007EC0BF
:10157800D9FF7FC0DAFFDECF13F0DDCF14F0D80E2D
:10158800156E7F0E166E000E186E020E176E13EC97
:1015980024F013501410D8B429D07EC0D9FF7FC0CE
:1015A800DAFFDECFF6FFDDCFF7FF0800F5506F0A50
:1015B800D8A406D07EC0D9FF7FC0DAFFDE2A1CD0AF
:1015C8007EC0D9FF7FC0DAFFDECF13F0DDCF14F085
:1015D800F30E156E7F0E166E000E186E020E176E45
:1015E80013EC24F013501410D8A422D0020E7EC09D
:1015F800D9FF7FC0DAFFDE26000EDD2280C0D9FFCA
:1016080081C0DAFFDFCF82F0020EDE26DFCF83F063
:10161800000EDD2282C0D9FF83C0DAFFDECF84F05E
:10162800DDCF85F084C099F085C09AF000017ED79F
:101638007EC0D9FF7FC0DAFFDECF13F0DDCF14F014
:10164800D30E156E7F0E166E000E186E030E176EF3
:1016580013EC24F013501410D8A434D0030E7EC019
:10166800D9FF7FC0DAFFDE26000EDD2280C0D9FF59
:1016780081C0DAFFDFCF82F0020EDE26DFCF83F0F3
:10168800000EDD2282C0D9FF83C0DAFFDECF96F0DC
:10169800DDCF97F096C0F6FF97C0F7FFF86A0E0EF9
:1016A800F76404D0C2C0F5FF0C0006D0F6CFE9FFFE
:1016B800F7CFEAFFC2C0EFFF000E00017D6F000EFA
:1016C8007C6F12007EC0D9FF7FC0DAFFDECF13F037
:1016D800DDCF14F0D40E156E7F0E166E000E186E48
:1016E800020E176E13EC24F013501410D8A42DD04A
:1016F800020E7EC0D9FF7FC0DAFFDE26000EDD2293
:1017080080C0D9FF81C0DAFFDFCF82F0020EDE266B
:10171800DFCF83F0000EDD2282C0D9FF83C0DAFF5D
:10172800DECF96F0DDCF97F096C0F6FF97C0F7FFB3
:10173800F86A0E0EF76407D0C2C0F5FF0D00C3C0EB
:10174800F5FF0C0001D07BD0B7D77EC0D9FF7FC092
:10175800DAFFDECFF6FFDDCFF7FF0800F5506E0A9F
:10176800D8A42CD07EC0D9FF7FC0DAFFDE2A000EB5
:10177800DD2280C0D9FF81C0DAFFDFCF82F0020E00
:10178800DE26DFCF83F0000EDD2282C0D9FF83C0C2
:10179800DAFFDECF96F0DDCF97F096C0F6FF97C060
:1017A800F7FFF86A0E0EF76407D0C2C0F5FF0D0008
:1017B800C3C0F5FF0C0001D042D07ED77EC0D9FF50
:1017C8007FC0DAFFDECF13F0DDCF14F0F00E156E18
:1017D8007F0E166E000E186E020E176E13EC24F0B4
:1017E80013501410D8A434D0020E7EC0D9FF7FC085
:1017F800DAFFDE26000EDD2280C0D9FF81C0DAFFC5
:10180800DFCF82F0020EDE26DFCF83F0000EDD226E
:1018180082C0D9FF83C0DAFFDECF96F0DDCF97F024
:1018280096C0F6FF97C0F7FFF86A0E0EF76407D068
:10183800C2C0F5FF0D00C3C0F5FF0C0008D0F6CFFD
:10184800E9FFF7CFEAFFC2C0EEFFC3C0EFFF34D70E
:101858007EC0D9FF7FC0DAFFDECFF6FFDDCFF7FF0E
:101868000800F550700AD8A443D07EC0D9FF7FC0C5
:10187800DAFFDE2A000EDD2280C0D9FF81C0DAFF40
:10188800DFCF82F0020EDE26DFCF83F0000EDD22EE
:1018980082C0D9FF83C0DAFFDECF84F0DDCF85F0C8
:1018A80084C099F085C09AF000019B6B9C6B9D6B7E
:1018B8009E6B9F6BA06B7CC030F07DC031F099C0EF
:1018C80032F09AC033F09BC034F09CC035F09DC014
:1018D80036F09EC037F09FC038F0A0C039F0780EBF
:1018E8003A6EF6EC1CF030C07CF031C07DF012008E
:1018F8007EC0D9FF7FC0DAFFDECFF6FFDDCFF7FF6E
:101908000800F550730AD8A42AD07EC0D9FF7FC03A
:10191800DAFFDE2A000EDD2280C0D9FF81C0DAFF9F
:10192800DFCF82F0020EDE26DFCF83F0000EDD224D
:1019380082C0D9FF83C0DAFFDECF86F0DDCF87F023
:101948007CC01EF07DC01FF086C020F087C021F04B
:1019580055EC22F01EC07CF01FC07DF012007EC046
:10196800D9FF7FC0DAFFDECF13F0DDCF14F0DB0E36
:10197800156E7F0E166E000E186E030E176E13ECA2
:1019880024F013501410D8A43FD0030E7EC0D9FF02
:101998007FC0DAFFDE26000EDD2280C0D9FF81C0BD
:1019A800DAFFDFCF82F0020EDE26DFCF83F0000EF3
:1019B800DD2282C0D9FF83C0DAFFDF500001846FC7
:1019C8008451996F9A6B9B6B9C6B9D6B9E6B9F6B05
:1019D800A06B7CC030F07DC031F099C032F09AC065
:1019E80033F09BC034F09CC035F09DC036F09EC0EB
:1019F80037F09FC038F0A0C039F011EC1EF030C0AD
:101A08007CF031C07DF012007EC0D9FF7FC0DAFFC4
:101A1800DECF13F0DDCF14F0DC0E156E7F0E166EE0
:101A2800000E186E020E176E13EC24F013501410EB
:101A3800D8B429D07EC0D9FF7FC0DAFFDECFF6FF49
:101A4800DDCFF7FF0800F550750AD8A406D07EC090
:101A5800D9FF7FC0DAFFDE2A1CD07EC0D9FF7FC045
:101A6800DAFFDECF13F0DDCF14F0F60E156E7F0E21
:101A7800166E000E186E020E176E13EC24F013503B
:101A88001410D8A422D0020E7EC0D9FF7FC0DAFF7E
:101A9800DE26000EDD2280C0D9FF81C0DAFFDFCF4D
:101AA80082F0020EDE26DFCF83F0000EDD2282C038
:101AB800D9FF83C0DAFFDECF84F0DDCF85F084C0A4
:101AC80099F085C09AF000017ED77EC0D9FF7FC00B
:101AD800DAFFDECF13F0DDCF14F0DF0E156E7F0EC8
:101AE800166E000E186E030E176E13EC24F01350CA
:101AF8001410D8B416D07EC0D9FF7FC0DAFFDECF6D
:101B080013F0DDCF14F0C70E156E7F0E166E000EA3
:101B1800186E030E176E13EC24F013501410D8A48B
:101B280054D07EC0D9FF7FC0DAFFDECF82F0DDCF90
:101B380083F0020E00018227000E832382C0F6FF85
:101B480083C0F7FF0800F5CF98F0030E7EC0D9FFD9
:101B58007FC0DAFFDE26000EDD2280C0D9FF81C0FB
:101B6800DAFFDFCF82F0020EDE26DFCF83F0000E31
:101B7800DD2282C0D9FF83C0DAFFDF50846F845131
:101B8800996F9A6B9B6B9C6B9D6B9E6B9F6BA06B0D
:101B98007CC030F07DC031F099C032F09AC033F08B
:101BA8009BC034F09CC035F09DC036F09EC037F025
:101BB8009FC038F0A0C039F098C03AF0F6EC1CF09D
:101BC80030C07CF031C07DF012007EC0D9FF7FC0EC
:101BD800DAFFDECF13F0DDCF14F0E00E156E7F0EC6
:101BE800166E000E186E020E176E13EC24F01350CA
:101BF8001410D8B492D07EC0D9FF7FC0DAFFDECFF0
:101C080013F0DDCF14F0C80E156E7F0E166E000EA1
:101C1800186E020E176E13EC24F013501410D8A48B
:101C28000AD07BD0020E7EC0D9FF7FC0DAFFDE2645
:101C3800000EDD2287D07EC0D9FF7FC0DAFFDECF5D
:101C4800F6FFDDCFF7FF0800F550780AD8B40DD0BD
:101C58007EC0D9FF7FC0DAFFDECFF6FFDDCFF7FF0A
:101C68000800F550580AD8A42CD07EC0D9FF7FC0F0
:101C7800DAFFDECFF6FFDDCFF7FF0800F5CF98F0EB
:101C88007EC0D9FF7FC0DAFFDE2A000EDD2280C0C9
:101C9800D9FF81C0DAFFDFCF82F0020EDE26DFCF68
:101CA80083F0000EDD2282C0D9FF83C0DAFFDECFC9
:101CB80084F0DDCF85F084C099F085C09AF00001EA
:101CC80061D77EC0D9FF7FC0DAFFDECF13F0DDCF4A
:101CD80014F0F90E156E7F0E166E000E186E020EB9
:101CE800176E13EC24F013501410D8B416D07EC01D
:101CF800D9FF7FC0DAFFDECF13F0DDCF14F0E70E97
:101D0800156E7F0E166E000E186E020E176E13EC0F
:101D180024F013501410D8A42ED07EC0D9FF7FC051
:101D2800DAFFDECF82F0DDCF83F0010E00018227DB
:101D3800000E832382C0F6FF83C0F7FF0800F5CFAB
:101D480098F070D780C0D9FF81C0DAFFDFCF82F06A
:101D5800020EDE26DFCF83F0000EDD2282C0D9FF1F
:101D680083C0DAFFDECF84F0DDCF85F084C099F040
:101D780085C09AF007D77EC0D9FF7FC0DAFFDECFD3
:101D8800F6FFDDCFF7FF0800F550250AD8A417D0D5
:101D98007EC0D9FF7FC0DAFFDE2A000EDD22000EEA
:101DA800166E250E156E7CC017F07DC018F03FEC3E
:101DB80027F0000E00017D6F010E7C6F12007EC0BF
:101DC800D9FF7FC0DAFFDE2A000EDD2275D47EC07F
:101DD800D9FF7FC0DAFFDECFF6FFDDCFF7FF0800BF
:101DE800F550156E166A7CC017F07DC018F03FECF0
:101DF80027F07EC0D9FF7FC0DAFFDE2A000EDD2281
:101E0800D8D7000184518511D8B40BD084C0D9FF2C
:101E180085C0DAFF82C0DEFF83C0DDFF02D0824BBF
:101E2800832B010E9C6F82C0D9FF83C0DAFF200E7E
:101E3800DE18D8A402D0010E01D0000EA16FA26B4B
:101E4800A151A211D8A41DD0F70E866FFF0E876F7F
:101E580082C0D9FF83C0DAFFDF50886F8851A16F35
:101E6800A26BA1C089F0A2C08AF086518927875148
:101E78008A238A5104E1050E895DD8A002D0000E9C
:101E88009C6F9CC08CF08D6B8C518D11D8A4C7D7DA
:101E9800000E9E6F2D0EA119A211D8A405D0010E17
:101EA8009E6F824B832B05D02B0EA119A211D8B49B
:101EB800F8D7000EA76F01D0A72BA7518225D96E9E
:101EC800000E8321DA6EDF50D8B426D0A7518225C0
:101ED800D96E000E8321DA6EDF50866F3C0EA7257F
:101EE800F66EF76A7F0EF7220800F5508619D8B407
:101EF800E3D7A7518225D96E000E8321DA6EDF5011
:101F0800866F330EA725F66EF76A7F0EF722080054
:101F1800F5508619D8B4D0D7020EA76523D0000E85
:101F2800A36F000EA46F800EA56F7F0EA66F84515D
:101F38008511D8B49FEF15F0080EA719D8B402D0B0
:101F4800030EA76FA7518225866F000E8321876F26
:101F580084C0D9FF85C0DAFF86C0DEFF87C0DDFFF9
:101F68009FEF15F0000EA76F01D0A72BA751822570
:101F7800D96E000E8321DA6EDF50D8B426D0A7516F
:101F88008225D96E000E8321DA6EDF50866FC30E6C
:101F9800A725F66EF76A7F0EF7220800F550861916
:101FA800D8B4E3D7A7518225D96E000E8321DA6E03
:101FB800DF50866FBB0EA725F66EF76A7F0EF722F5
:101FC8000800F5508619D8B4D0D7030EA719D8A49D
:101FD80056D0D30E136E7D0E146E7FEC2EF013C008
:101FE800A3F014C0A4F015C0A5F016C0A6F0000117
:101FF80084518511D8B49FEF15F0A7518227000EA0
:10200800832382C0D9FF83C0DAFF280EDE18D8A444
:102018002CD0000EA76F01D0A72BA7518225D96E0F
:10202800000E8321DA6EDF50D8B40AD0A75182257A
:10203800D96E000E8321DA6E290EDE18D8A4ECD7EB
:10204800A7518225D96E000E8321DA6E290EDE187B
:10205800D8A40BD0A751866F876B010E8627000E78
:102068008723865182278751832384C0D9FF85C05F
:10207800DAFF82C0DEFF83C0DDFF9FEF15F0000EA0
:10208800A26F000EA16F000EA36F000EA46F000ECA
:10209800A56F000EA66F000EA06F000E9F6F000EBA
:1020A800A76F01D0A72BA7518225D96E000E8321D7
:1020B800DA6E300EDE18D8B4F5D7A751D8B4CAD224
:1020C800A7518225D96E000E8321DA6E780EDE18AC
:1020D800D8B40AD0A7518225D96E000E8321DA6EB2
:1020E800580EDE18D8A4B6D2A751866F876B010E9A
:1020F8008627000E87238651822787518323000E67
:10210800A76F01D0A72BA7518225D96E000E832176
:10211800DA6E300EDE18D8B4F5D7000EA76FA751C7
:102128008225D96E000E8321DA6E700EDE18D8B4BF
:102138003AD1A7518225D96E000E8321DA6E500E4E
:10214800DE18D8B430D1A7518225D96E000E83216C
:10215800DA6E2E0EDE18D8A402D09E8923D1A7519C
:102168008225D96E000E8321DA6EDF50866F865184
:10217800136E146AD5EC28F013501410D8B469D033
:10218800000E00019D6FD00E866FFF0E876FA7515E
:102198008225D96E000E8321DA6EDF50886F896B35
:1021A8008651882787518923895106E10A0E885D5F
:1021B800D8B002D0010E01D0000E8E6F8F6B8E51F9
:1021C8008F11D8B409D0A7518225D96E000E83216A
:1021D800DA6EDF50D00F10D0A7518225D96E000ECD
:1021E8008321DA6EDF50866F8651196E1A6AC4EC45
:1021F8002AF01950C90F00019D6FA2BF06D0A25145
:1022080021E1080EA15DD8B01DD0A1510708866F45
:10221800D8908637D89086379DC087F0886B896BB1
:102228008A6B862B05D0D8908737883789378A37C5
:10223800862FF9D78751A3138851A4138951A51361
:102248008A51A613A14BA22B040E9F27000EA02390
:102258000AD0000E0001826F000E836F000E846F9B
:10226800000E856F1200A72B5AD7A7518225D96E69
:10227800000E8321DA6E700EDE18D8B496D0A751FE
:102288008225D96E000E8321DA6E500EDE18D8B47E
:102298008CD0A7518225D96E000E8321DA6E300EBC
:1022A800DE18D8A409D0A151A211D8A405D0FC0EDB
:1022B8009F27FF0EA02375D0A7518225D96E000E47
:1022C8008321DA6EDF50866F8651136E146AD5EC5F
:1022D80028F013501410D8B464D0000E00019D6F7C
:1022E800D00E866FFF0E876FA7518225D96E000E1C
:1022F8008321DA6EDF50886F896B86518827875172
:102308008923895106E10A0E885DD8B002D0010EF2
:1023180001D0000E906F916B90519111D8B409D0F3
:10232800A7518225D96E000E8321DA6EDF50D00FB7
:1023380010D0A7518225D96E000E8321DA6EDF50A6
:10234800866F8651196E1A6AC4EC2AF01950C90FA3
:1023580000019D6FA2BF06D0A25121E1080EA15D28
:10236800D8B01DD0A1510708866FD8908637D8906D
:1023780086379DC087F0886B896B8A6B862B05D062
:10238800D8908737883789378A37862FF9D7875182
:10239800A3138851A4138951A5138A51A613A14BDD
:1023A800A22B0001A72B9EB960D7A7518225D96E11
:1023B800000E8321DA6E700EDE18D8B413D0A75140
:1023C8008225D96E000E8321DA6E500EDE18D8B43D
:1023D80009D0000E826F000E836F000E846F000E0E
:1023E800856F1200A72BA7518225D96E000E832175
:1023F800DA6E2B0EDE18D8B40BD0A7518225D96E11
:10240800000E8321DA6E2D0EDE18D8A402D09E8726
:10241800A72BA7518227000E8323000EA76F01D098
:10242800A72BA7518225D96E000E8321DA6E300EB4
:10243800DE18D8B4F5D7000EA26F000EA16F28D011
:10244800A751D8B40ED0A1C013F0A2C014F0000E4A
:10245800166E0A0E156E24EC2EF013C0A1F014C0EF
:10246800A2F0D00E0001866FFF0E876FA75182255C
:10247800D96E000E8321DA6EDF50886F896B865122
:102488008827875189238851A1278951A223A72BFF
:10249800D00E866FFF0E876FA7518225D96E000E6A
:1024A8008321DA6EDF50886F896B865188278751C0
:1024B8008923895106E10A0E885DD8B002D0010E41
:1024C80001D0000E926F936B92519311D8A4B8D794
:1024D800A751D8A409D0000E826F000E836F000E9A
:1024E800846F000E856F12009EA704D0A16DA21FF5
:1024F800D8B0A22BA1519F27A251A02384518511A6
:10250800D8B40ED0A7518225866F000E8321876F1D
:1025180084C0D9FF85C0DAFF86C0DEFF87C0DDFF33
:10252800A351A411A511A611D8A409D0000E826F39
:10253800000E836F000E846F000E856F1200FF0E71
:10254800A315866F000EA415876F000EA515886F5A
:10255800000EA615896F89518811871104E1810E33
:10256800865DD8A011D0000EA327010EA423000E6B
:10257800A523000EA62308D0D890A337A437A537E3
:10258800A6379F07D8A0A007A6AFF6D7A0AF12D04E
:10259800830E9F5DFF0EA059D8B00CD0FF0EA06F20
:1025A800810E9F6F000EA36F000EA46F000EA56F23
:1025B800000EA66F810E9F1903E1A029D8B408D098
:1025C800D890A337A437A537A6379F07D8A0A00768
:1025D800A0BF12D0A05104E1800E9F5DD8A00CD0FE
:1025E800000EA36F000EA46F000EA56F000EA66F5D
:1025F800000EA06F800E9F6F090E866FD890A633CD
:10260800A533A433A333862FF9D7FF0EA317FF0EE4
:10261800A4177F0EA517000EA6177F0E9F25866F9D
:10262800000EA021876FFF0E8615886F896B8A6B55
:102638008B6B170ED890883789378A378B37E82EF7
:10264800F9D78851A3138951A4138A51A5138B5123
:10265800A61371D29EB90AD082C0D9FF83C0DAFF0F
:102668002E0EDE18D8A402D09E8959D0D00E866FBF
:10267800FF0E876F82C0D9FF83C0DAFFDF50886FF3
:10268800896B8651882787518923895106E10A0E6B
:10269800885DD8B002D0010E01D0000E946F956B02
:1026A80094519511D8B43ED09E83090EA119A21158
:1026B800D8B431D09EA903D09F07D8A0A007A14BBA
:1026C800A22BA3C013F0A4C014F0A5C015F0A6C097
:1026D80016F00A0E176E000E186E000E196E000E18
:1026E8001A6E30EC29F013C0A3F014C0A4F015C082
:1026F800A5F016C0A6F082C0D9FF83C0DAFFDF506C
:102708000001866FD00E86278651A327000EA423CA
:10271800A523A62304D09EB902D09F4BA02B824BA1
:10272800832B98D7000EA26F000EA16F82C0D9FF2D
:1027380083C0DAFF650EDE18D8B408D082C0D9FF8E
:1027480083C0DAFF450EDE18D8A4BFD0824B832B96
:1027580082C0D9FF83C0DAFF2D0EDE18D8A402D0BC
:102768009E8708D082C0D9FF83C0DAFF2B0EDE18FF
:10277800D8A402D0824B832B82C0D9FF83C0DAFF52
:10278800300EDE18D8B4F6D7D00E866FFF0E876FDE
:1027980082C0D9FF83C0DAFFDF50886F896B86510A
:1027A800882787518923895106E10A0E885DD8B0A8
:1027B80002D0010E01D0000E966F976B96519711BB
:1027C800D8B47DD082C0D9FF83C0DAFFDF50866FCE
:1027D800D00E86278651A16FA26B824B832BD00E19
:1027E800866FFF0E876F82C0D9FF83C0DAFFDF5084
:1027F800886F896B8651882787518923895106E11B
:102808000A0E885DD8B002D0010E01D0000E986F74
:10281800996B98519911D8B452D082C0D9FF83C00E
:10282800DAFFDF50866FD00E8627A1C013F0A2C052
:1028380014F0000E166E0A0E156E24EC2EF0000130
:1028480086511324A16F000E1420A26F824B832B94
:10285800D00E866FFF0E876F82C0D9FF83C0DAFF64
:10286800DF50886F896B8651882787518923895162
:1028780006E10A0E885DD8B002D0010E01D0000E24
:102888009A6F9B6B9A519B11D8B419D082C0D9FF0B
:1028980083C0DAFFDF50866FD00E8627A1C013F001
:1028A800A2C014F0000E166E0A0E156E24EC2EF05F
:1028B800000186511324A16F000E1420A26F9EA759
:1028C80004D0A16DA21FD8B0A22BA1519F27A2515D
:1028D800A02384518511D8A49EA308D084C0D9FF11
:1028E80085C0DAFF82C0DEFF83C0DDFFA3C013F01E
:1028F800A4C014F0A5C015F0A6C016F0000E15EC83
:1029080021F013C0A3F014C0A4F015C0A5F016C0A0
:10291800A6F0A3C013F0A4C014F0A5C015F0A6C07B
:1029280016F0000E176E000E186E000E196E000ECF
:102938001A6E24EC28F0D8A00AD0000E0001826F8D
:10294800000E836F000E846F000E856F1200000169
:10295800A0AF78D09F6DA01FD8B0A02B1FD0A3C068
:102968006DF0A4C06EF0A5C06FF0A6C070F0F90EAF
:10297800716F020E726F150E736F500E746F8DECBF
:102988001AF06DC0A3F06EC0A4F06FC0A5F070C0BF
:10299800A6F00001F60E9F27FF0EA023A0BF25D0AA
:1029A800A051DDE10A0E9F5DD8A01FD0D8D7A3C0E3
:1029B8006DF0A4C06EF0A5C06FF0A6C070F0000E58
:1029C800716F000E726F200E736F410E746F8DEC75
:1029D8001AF06DC0A3F06EC0A4F06FC0A5F070C06F
:1029E800A6F000019F07D8A0A0079F51A011D8A466
:1029F800DED7A3C013F0A4C014F0A5C015F0A6C07C
:102A080016F0000E176E000E186E800E196E000E6E
:102A18001A6E61EC25F0D8B08ED000019EA109D0C5
:102A2800000E826F000E836F800E846F800E856F9C
:102A38001200000E826F000E836F800E846F000EEE
:102A4800856F1200A0BF77D0A05123E19F05D8B0B1
:102A580020D071D0A3C02BF0A4C02CF0A5C02DF0BD
:102A6800A6C02EF0F90E2F6E020E306E150E316EC6
:102A7800500E326EBDEC15F02BC0A3F02CC0A4F0A4
:102A88002DC0A5F02EC0A6F00001F60E9F27FF0E60
:102A9800A023A051DFE10A0E9F5DD8A01FD0DAD78E
:102AA800A3C02BF0A4C02CF0A5C02DF0A6C02EF01A
:102AB800000E2F6E000E306E200E316E410E326EFB
:102AC800BDEC15F02BC0A3F02CC0A4F02DC0A5F0D0
:102AD8002EC0A6F000019F07D8A0A0079F51A01103
:102AE800D8A4DED7FF0E136EFF0E146E7F0E156E80
:102AF8007F0E166EA3C017F0A4C018F0A5C019F079
:102B0800A6C01AF061EC25F0D8B015D000019EA13E
:102B180009D0000E826F000E836F800E846F800EC6
:102B2800856F1200000E826F000E836F800E846F17
:102B3800000E856F120000019EA112D0A3C013F0F1
:102B4800A4C014F0A5C015F0A6C016F04FEC2DF0E7
:102B580013C0A3F014C0A4F015C0A5F016C0A6F0C9
:102B6800A3C082F0A4C083F0A5C084F0A6C085F0FD
:102B780012002E50800B0001606F2E502E24666FBD
:102B88002DBE66816651D8B40DD06629D8A408D068
:102B9800000E2B6E000E2C6E000E2D6E000E2E6E8B
:102BA8002D8E08D0000E2B6E000E2C6E000E2D6E92
:102BB800000E2E6E3250800B601B32503224616F33
:102BC80031BE61816151D8B40DD06129D8A408D033
:102BD800000E2F6E000E306E000E316E000E326E3B
:102BE800318E08D0000E2F6E000E306E000E316E42
:102BF800000E326E6151D8B403D06651D8A409D002
:102C0800000E2B6E000E2C6E000E2D6E000E2E6E1A
:102C1800120031502B02F3CF6BF0F4CF6CF06B51F4
:102C2800626F636B646B656B6C51676F686B696B24
:102C38006A6B30502C02F3CF6BF0F4CF6CF06B5111
:102C48006227000E6323642365236C516727000EF7
:102C5800682369236A232F502D02F3CF6BF0F4CF3A
:102C68006CF06B516227000E6323642365236C515B
:102C78006727000E682369236A2364C065F063C070
:102C880064F062C063F0626B2F502C02F3CF6BF0DC
:102C9800F4CF6CF06B5162276C516323000E6423F0
:102CA800000E652330502B02F3CF6BF0F4CF6CF09D
:102CB8006B5162276C516323000E6423000E652359
:102CC80064C065F063C064F062C063F0626B2F504B
:102CD8002B02F3CF6BF0F4CF6CF06B5162276C5181
:102CE8006323000E6423000E652331502C02F3CFBA
:102CF8006BF0F4CF6CF06B5167276C516823000EB2
:102D08006923000E6A2330502D02F3CF6BF0F4CF05
:102D18006CF06B5167276C516823000E6923000E15
:102D28006A2331502D02F3CF6BF0F4CF6CF06B5166
:102D3800336E6C51346E356A366A35C036F034C03D
:102D480035F033C034F0336A335067273450682382
:102D58003550692336506A2362C033F063C034F0BB
:102D680064C035F065C036F0190E05D0D8903632FB
:102D7800353234323332E82EF9D73350672734509E
:102D880068233550692336506A2364C065F063C0F0
:102D980064F062C063F0626B615166C033F0346AFC
:102DA8003326000E3422820E33246B6FFF0E34203C
:102DB8006C6F0FD0D8906737683769376A3765BF47
:102DC8006781D89062376337643765376B07D8A057
:102DD8006C0769AFEFD7000E616F65AF17D0FF0EB4
:102DE8006215336EFF0E6315346EFF0E6415356E73
:102DF8007F0E6515366E3350341035103610D8B442
:102E080003D0010E616F02D067B1FBD76151D8B40E
:102E18001FD0010E6727000E682369236A236AA161
:102E280017D067C033F068C034F069C035F06AC0A5
:102E380036F03634363235323432333233C067F016
:102E480034C068F035C069F036C06AF06B4B6C2B43
:102E58006CBF0DD06C5103E16B29D8A008D0000ECF
:102E6800676F000E686F800E696F7F0E20D06CBF91
:102E780005D06C510EE16B05D8B00BD0000E676F12
:102E8800000E686F000E696F000E6A6F000E606FAB
:102E98000FD06BC066F0FF0E6717FF0E68177F0E26
:102EA8006917000E6A1766B1698FD89066316A6F24
:102EB80060516A1367C02BF068C02CF069C02DF010
:102EC8006AC02EF012001AC17BF01BC17CF01CC135
:102ED8007DF01DC17EF037C07BF038C07CF039C072
:102EE8007DF03AC07EF07BC06DF07CC06EF07DC096
:102EF8006FF07EC070F0180E06D00001D8907033C5
:102F08006F336E336D33E82EF8D76D51756F766B6E
:102F180076BF0FD0765104E1960E755DD8A009D022
:102F280037C037F038C038F039C039F03AC03AF015
:102F380012007BC06DF07CC06EF07DC06FF07EC06B
:102F480070F0200E05D0D89070336F336E336D3328
:102F5800E82EF9D76D516E116F117011D8B412D0D7
:102F680037C013F038C014F039C015F03AC016F065
:102F78004FEC2DF013C037F014C038F015C039F0FD
:102F880016C03AF0000176BF06D076511FE17E0EDA
:102F9800755DD8B01BD07BC02BF07CC02CF07DC0F9
:102FA8002DF07EC02EF0000E2F6E000E306E000E3B
:102FB800316E000E326EBDEC15F02BC037F02CC010
:102FC80038F02DC039F02EC03AF01200000E176EFE
:102FD800000E186E000E196E4B0E1A6E37C013F0E5
:102FE80038C014F039C015F03AC016F007EC19F0E3
:102FF80013C077F014C078F015C079F016C07AF0D5
:10300800000E176E000E186E000E196ECB0E1A6E9B
:1030180077C013F078C014F079C015F07AC016F0B4
:1030280007EC19F013C071F014C072F015C073F0FA
:1030380016C074F071C023F072C024F073C025F07C
:1030480074C026F037C027F038C028F039C029F0FE
:103058003AC02AF0E9EC2AF023C07FF024C080F0BF
:1030680025C081F026C082F0000E136E000E146E8B
:10307800000E156E3F0E166E7FC017F080C018F058
:1030880081C019F082C01AF061EC25F0D8B02DD0BB
:1030980037C017F038C018F039C019F03AC01AF024
:1030A8007FC013F080C014F081C015F082C016F004
:1030B80007EC19F013C077F014C078F015C079F058
:1030C80016C07AF077C013F078C014F079C015F004
:1030D8007AC016F0000E176E000E186E800E196E6C
:1030E800BF0E1A6E07EC19F053D0000E136E000EC7
:1030F800146E000E156EBF0E166E7FC017F080C0DE
:1031080018F081C019F082C01AF061EC25F0D8A03F
:103118002DD037C017F038C018F039C019F03AC0B0
:103128001AF07FC013F080C014F081C015F082C07F
:1031380016F007EC19F013C077F014C078F015C03A
:1031480079F016C07AF077C013F078C014F079C01F
:1031580015F07AC016F0000E176E000E186E800E6D
:10316800196E3F0E1A6E07EC19F012D07FC013F0DB
:1031780080C014F081C015F082C016F037C017F077
:1031880038C018F039C019F03AC01AF007EC19F035
:1031980013C07FF014C080F015C081F016C082F013
:1031A8007BC06DF07CC06EF07DC06FF07EC070F0AB
:1031B800200E06D00001D89070336F336E336D3314
:1031C800E82EF8D76D516E116F117011D8B412D066
:1031D8007FC013F080C014F081C015F082C016F0D3
:1031E8004FEC2DF013C07FF014C080F015C081F0B3
:1031F80016C082F07FC037F080C038F081C039F047
:1032080082C03AF012001650800B1F6E165016241A
:10321800216E15BE21802150D8B40DD02128D8A404
:1032280008D0000E136E000E146E000E156E000E00
:10323800166E158E06D0000E136E000E146E000E5C
:10324800156E000E166E1A50800B206E1F50201837
:10325800D8A41F8C1A501A24206E19BE2080205022
:10326800D8B40DD02028D8A408D0000E176E000EB0
:10327800186E000E196E000E1A6E198E06D0000E0A
:10328800176E000E186E000E196E000E1A6E215081
:10329800205CD8B022D01FAC02D0800E1F1A21C0EB
:1032A80022F020C021F022C020F013C022F017C065
:1032B80013F022C017F014C022F018C014F022C076
:1032C80018F015C022F019C015F022C019F016C068
:1032D80022F01AC016F022C01AF0000E226E2150F9
:1032E80020C01BF01C6A1B5E000E1C5A1CBE2CD092
:1032F8001C5004E11A0E1B5CD8A026D013501410E1
:1033080015101610D8B402D0010E01D0000E226E8E
:10331800000E136E000E146E000E156E000E166E63
:1033280020C021F015D022A005D0D8902230010964
:10333800226E02D0D890223213B0228E1634163262
:10334800153214321332212A2050215CD8A0EBD731
:103358001FBC28D02150D8A409D0000E136E000E2F
:10336800146E000E156E000E166E120017501326FE
:1033780018501422195015221A50162216A071D06E
:1033880022A005D0D89022300109226E02D0D89010
:10339800223213B0228E16341632153214321332FA
:1033A800212A5FD01750135C18501458195015581B
:1033B8001650800A1B6E1A50800A1B58D8B025D0A8
:1033C8001350175C1B6E145018581C6E1550195862
:1033D8001D6E16501A581E6EFF0E1B24136EFF0E1C
:1033E8001C20146EFF0E1D20156EFF0E1E20166E7B
:1033F800800E1F1A226C2250D8A40FD0010E13265B
:10340800000E14221522162208D01750135E1850E9
:10341800145A1950155A1A50165A135014101510D8
:103428001610D8A41CD02250D8A419D0000E136EA0
:10343800000E146E000E156E000E166E1200D89057
:10344800133614361536163622BE138022A002D043
:10345800D88001D0D89022362150D8A4210615AEA4
:10346800EED7000E206E22AE0BD022C01BF07F0ECE
:103478001B16D8B403D0010E206E02D013B0FBD7B0
:103488002050D8B420D0010E1326000E1422152285
:10349800162216A018D013C01BF014C01CF015C0BB
:1034A8001DF016C01EF01E341E321D321C321B3297
:1034B8001BC013F01CC014F01DC015F01EC016F080
:1034C8002128D8A4212A2128D8B403D02150D8A44F
:1034D8000DD0000E136E000E146E000E156E000E49
:1034E800166E2150D8A402D0000E1F6E21A002D063
:1034F800158E01D0159ED8902130166E1FBE168EDF
:1035080013C013F014C014F015C015F016C016F04F
:10351800120000017051800B796F70517025806F17
:103528006FBF80818051D8B40DD08029D8A408D02D
:10353800000E6D6F000E6E6F000E6F6F000E706FD5
:103548006F8F06D0000E6D6F000E6E6F000E6F6FDE
:10355800000E706F7451800B791B74517425816F44
:1035680073BF81818151D8B40DD08129D8A408D0E6
:10357800000E716F000E726F000E736F000E746F85
:10358800738F06D0000E716F000E726F000E736F8E
:10359800000E746F7151721173117411D8A417D081
:1035A800000E6D6F000E6E6F000E6F6F000E706F65
:1035B800800E6F137F0E7013795170136DC06DF00C
:1035C8006EC06EF06FC06FF070C070F01200805166
:1035D800D8A409D0000E6D6F000E6E6F000E6F6FCD
:1035E800000E706F1200815180C037F0386A375E64
:1035F800000E385A7F0E37247A6F000E38207B6F02
:103608006DC075F06EC076F06FC077F070C078F05E
:10361800000E6D6F000E6E6F000E6F6F000E706FF4
:10362800000E7C6F000E7D6F000E7E6F000E7F6FA8
:10363800000E816F28D08151D8B411D0D890753739
:10364800763777377837D8906D376E376F3770376A
:103658007FBF6D81D8907C377D377E377F3771513A
:10366800755D725176597351775974517859D8A04C
:1036780009D07F8D7151755F7251765B7351775B9D
:103688007451785B812B190E8165D5D775517611E8
:1036980077117811D8B411D07C810FD0D8906D37BC
:1036A8006E376F3770377FBF6D81D8907C377D3725
:1036B8007E377F377A07D8A07B076FAFEFD7000E2A
:1036C800816F7FAF17D0FF0E7C15376EFF0E7D150B
:1036D800386EFF0E7E15396E7F0E7F153A6E3750A5
:1036E800381039103A10D8B403D0010E816F02D0C7
:1036F8006DB1FBD78151D8B41FD0010E6D27000ED4
:103708006E236F23702370A117D06DC037F06EC081
:1037180038F06FC039F070C03AF03A343A32393282
:103728003832373237C06DF038C06EF039C06FF0BC
:103738003AC070F07A4B7B2B7BBF10D07B5103E1F2
:103748007A29D8A00BD0000E7B6F7A69000E6D6FB6
:10375800000E6E6F000E6F6F000E706F7BBF05D08E
:103768007B5111E17A05D8B00ED0000E7B6F000EA8
:103778007A6F000E6D6F000E6E6F000E6F6F000E89
:10378800706F000E796F7AC080F080A102D06F8FC1
:1037980001D06F9FD8908031706F0ED732C070F013
:1037A80033C071F034C072F035C073F036C074F0B5
:1037B80037C075F038C076F039C077F0000177AFC0
:1037C80002D0010E01D0000E6E6F6F6B6E516F113B
:1037D800D8B410D0771F761F751F741F731F721F00
:1037E800711F706D000E7123722373237423752368
:1037F800762377233EAE3F923EBE05D03E5008E189
:103808003D04D8B005D0000E6B6F010E6A6F04D06E
:103818003DC06AF03EC06BF03BC06CF03CC06DF040
:103828006E516F11D8A402D03FA403D06C07D8A062
:103838006D07000E796F1F0E786F000E01017F6F04
:103848007DD07807D8A07907600E7825D96E010E4B
:103858007921DA6E70C013F071C014F072C015F0DF
:1038680073C016F074C017F075C018F076C019F060
:1038780077C01AF00A0E1B6E000E1C6E000E1D6E2D
:10388800000E1E6E000E1F6E000E206E000E216EC2
:10389800000E226EF4EC22F013C060F014C061F048
:1038A80015C062F016C063F017C064F018C065F068
:1038B80019C066F01AC067F060C025F062C026F033
:1038C800BEEC2CF02550300FDF6E00016A07D8A03F
:1038D8006B076C07D8A06D0770C013F071C014F0A7
:1038E80072C015F073C016F074C017F075C018F0E8
:1038F80076C019F077C01AF00A0E1B6E000E1C6E07
:10390800000E1D6E000E1E6E000E1F6E000E206E45
:10391800000E216E000E226E71EC20F013C070F0C4
:1039280014C071F015C072F016C073F017C074F0AF
:1039380018C075F019C076F01AC077F0000179BF89
:103948001FD0795103E17805D8A01AD070517111B0
:10395800721173117411751176117711D8A471D77A
:103968006BBF05D06B5102E16A05D8B06AD76DBF4D
:1039780007D06D5103E16C05D8A002D03FB261D7E2
:103988006E516F11D8A402D03FA417D07807D8A0E1
:1039980079076E516F11D8A404D0000E696F2B0EF1
:1039A80003D0000E696F2D0E686F600E7825D96EF2
:1039B800010E7921DA6E68C0DFFF30C025F031C012
:1039C80026F0600E7825276E010E7921286E6CC0CE
:1039D80029F06DC02AF08FEC27F025C030F026C002
:1039E80031F012003EAE3F923EBE05D03E5009E196
:1039F8003D04D8B006D0000E00016D6F010E6C6F4B
:103A080004D03DC06CF03EC06DF03BC06EF03CC0D1
:103A18006FF03FA805D00001FE0E6E27FF0E6F2342
:103A280032C070F033C071F034C072F035C073F03A
:103A380036C074F037C075F038C076F039C077F00A
:103A4800000E0001796F1F0E786F000E01017F6F65
:103A580094D07807D8A079070F0E70157A6F7B6B12
:103A68007BBF08D07B5104E10A0E7A5DD8A002D052
:103A7800570E01D0300E7A257A6F000E7B217B6FAE
:103A8800BF0E606FFF0E616F3A50626F636B6051DB
:103A9800622761516323635106E11A0E625DD8B053
:103AA80002D0010E01D0000E686F696B6851691170
:103AB800D8B427D09F0E606FFF0E616F200E7A1169
:103AC800626F000E7B11636F60516227615163233F
:103AD800635106E11A0E625DD8B002D0010E01D022
:103AE800000E6A6F6B6B6A516B11D8B40AD07AC03A
:103AF80019F07BC01AF0C4EC2AF019C07AF01AC089
:103B08007BF0600E00017825D96E010E7921DA6EFE
:103B18007AC0DFFF6C07D8A06D076E07D8A06F07C3
:103B280070C060F071C061F072C062F073C063F081
:103B380074C064F075C065F076C066F077C067F051
:103B4800050E09D0D8906733663365336433633321
:103B5800623361336033E82EF5D760C070F061C01E
:103B680071F062C072F063C073F064C074F065C035
:103B780075F066C076F067C077F0000179BF20D095
:103B8800795104E1020E785DD8A01AD070517111F4
:103B9800721173117411751176117711D8A459D750
:103BA8006DBF05D06D5102E16C05D8B052D76FBF1B
:103BB80007D06F5103E16E05D8A002D03FB249D7B4
:103BC8003FA816D07807D8A07907600E7825D96E57
:103BD800010E7921DA6E3AC0DFFF7807D8A079079D
:103BE800600E7825D96E010E7921DA6E300EDF6EFF
:103BF80030C025F031C026F0600E7825276E010E02
:103C08007921286E6EC029F06FC02AF08FEC27F05A
:103C180025C030F026C031F012003EAE3F923EBEC5
:103C280005D03E5009E13D04D8B006D0000E000191
:103C3800696F010E686F04D03DC068F03EC069F03E
:103C48003BC06AF03CC06BF032C06CF033C06DF022
:103C580034C06EF035C06FF036C070F037C071F008
:103C680038C072F039C073F0000E0001756F1F0E76
:103C7800746F000E01017F6F77D07407D8A07507A5
:103C8800600E7425D96E010E7521DA6E6CC013F0C2
:103C98006DC014F06EC015F06FC016F070C017F04C
:103CA80071C018F072C019F073C01AF00A0E1B6EBA
:103CB800000E1C6E000E1D6E000E1E6E000E1F6E96
:103CC800000E206E000E216E000E226EE8EC26F02B
:103CD80013C060F014C061F015C062F016C063F044
:103CE80017C064F018C065F019C066F01AC067F014
:103CF80000016051300FDF6E6807D8A069076A07B6
:103D0800D8A06B076CC013F06DC014F06EC015F02E
:103D18006FC016F070C017F071C018F072C019F0BB
:103D280073C01AF00A0E1B6E000E1C6E000E1D6E7C
:103D3800000E1E6E000E1F6E000E206E000E216E0D
:103D4800000E226EC9EC25F013C06CF014C06DF0A3
:103D580015C06EF016C06FF017C070F018C071F083
:103D680019C072F01AC073F0000174517511D8B4FB
:103D78001AD06C516D116E116F1170117111721191
:103D88007311D8A47AD769BF05D0695102E16805D3
:103D9800D8B073D76BBF07D06B5103E16A05D8A0C1
:103DA80002D03FB26AD730C025F031C026F0600E8D
:103DB8007425276E010E7521286E6AC029F06BC024
:103DC8002AF08FEC27F025C030F026C031F0120021
:103DD80087C14CF388C14DF3000E136E030E146EA9
:103DE800ACC015F0ADC016F08AEC2CF0000E1F6EBA
:103DF800030E206E4C0E216E030E226E8EEC26F002
:103E0800000E1F6E000E206E4C0E216E030E226EE9
:103E18008EEC26F01FC04AF320C04BF303014A5131
:103E28004B11D8B492D04AC3A8F04BC3A9F0E8EC20
:103E38002DF0A8C042F3A9C043F3AAC044F3ABC015
:103E480045F3000E2F6E000E306E400E316E410E9F
:103E5800326E42C32BF043C32CF044C32DF045C34C
:103E68002EF0BDEC15F02BC06DF02CC06EF02DC0FF
:103E78006FF02EC070F0000E0001716F000E726FAF
:103E8800B40E736F430E746F8DEC1AF06DC04EF361
:103E98006EC04FF36FC050F370C051F34EC313F0B0
:103EA8004FC314F050C315F051C316F086EC23F03D
:103EB80013C046F314C047F315C048F316C049F3BE
:103EC80046C327F047C328F048C329F049C32AF05E
:103ED8004EC323F04FC324F050C325F051C326F03E
:103EE800E9EC2AF023C02BF024C02CF025C02DF0DB
:103EF80026C02EF0000E2F6E000E306EB40E316EFE
:103F0800430E326EBDEC15F02BC04EF32CC04FF3B0
:103F18002DC050F32EC051F34EC337F04FC338F0C5
:103F280050C339F051C33AF067EC17F037C083F04B
:103F380038C084F039C085F03AC086F030EC26F0FD
:103F480083C0ACF084C0ADF01200020E0001AD6F6A
:103F58009A0EAC6F12003EAE3F923EBE05D03E5068
:103F680009E13D04D8B006D0000E0001696F010ECA
:103F7800686F04D03DC068F03EC069F03BC06CF08B
:103F88003CC06DF032C06EF033C06FF034C070F0DA
:103F980035C071F036C072F037C073F038C074F0B5
:103FA80039C075F0000E0001776F1F0E766F000E96
:103FB80001017F6F000E00016B6F000E6A6F43D026
:103FC8007607D8A07707070E6E156A6F6B6B600EC1
:103FD8007625D96E010E7721DA6E6A51300FDF6EC1
:103FE8006807D8A069076C07D8A06D076EC060F095
:103FF8006FC061F070C062F071C063F072C064F0AD
:1040080073C065F074C066F075C067F0040E09D01F
:10401800D89067336633653364336333623361330F
:104028006033E82EF5D760C06EF061C06FF062C0F3
:1040380070F063C071F064C072F065C073F066C060
:1040480074F067C075F077BF1FD0775103E176052C
:10405800D8A01AD06E516F117011711172117311AD
:1040680074117511D8A4ACD769BF05D06951A8E1FE
:104078006805D8B0A5D76DBF07D06D5103E16C05B1
:10408800D8A002D03FB29CD73FA812D06A516B117A
:10409800D8B40ED07607D8A07707600E7625D96EEB
:1040A800010E7721DA6E300EDF6E6C07D8A06D072F
:1040B80030C025F031C026F0600E7625276E010E3F
:1040C8007721286E6CC029F06DC02AF08FEC27F09C
:1040D80025C030F026C031F01200000E246E22AE4A
:1040E80012D0221E211E201E1F1E1E1E1D1E1C1E3B
:1040F8001B6C000E1C221D221E221F2220222122A0
:104108002222010E246E1AAE12D01A1E191E181E73
:10411800171E161E151E141E136C000E14221522CF
:1041280016221722182219221A22010E241A20EE0A
:1041380025F0070EDE6AE806FDE21B501C101D1074
:104148001E101F10201021102210D8B446D0010EC6
:10415800236E0AD0D8901B361C361D361E361F36E5
:10416800203621362236232A22AEF4D7D890253697
:1041780026362736283629362A362B362C361B5033
:10418800135C1C5014581D5015581E5016581F50BB
:104198001758205018582150195822501A58D8A08A
:1041A80011D01B50135E1C50145A1D50155A1E5026
:1041B800165A1F50175A2050185A2150195A22506F
:1041C8001A5A2580D8902232213220321F321E32CC
:1041D8001D321C321B32232EC9D72450D8B410D01C
:1041E8002C1E2B1E2A1E291E281E271E261E256C45
:1041F800000E26222722282229222A222B222C229C
:1042080025C013F026C014F027C015F028C016F0FA
:1042180029C017F02AC018F02BC019F02CC01AF0CA
:1042280012001B6E1B50D8A416AE1AD013C017F07C
:1042380014C018F015C019F016C01AF0171E181E71
:10424800191E1A1E172A000E182219221A2217C020
:104258001DF018C01EF019C01FF01AC020F008D0B9
:1042680013C01DF014C01EF015C01FF016C020F0BA
:104278001350141015101610D8A409D0000E136E80
:10428800000E146E000E156E000E166E1200960EBD
:104298001C6E06D01C2AD89020321F321E321D32C6
:1042A800000E1D14176E000E1E14186E000E1F143B
:1042B800196EFE0E20141A6E1750181019101A10C5
:1042C800D8B40DD0E7D71C2A010E1D26000E1E22D9
:1042D8001F222022D89020321F321E321D32000E9B
:1042E8001D14176E000E1E14186E000E1F14196E82
:1042F800FF0E20141A6E1750181019101A10D8B47F
:1043080007D0E1D71C06D8901D361E361F3620363A
:104318001FBE03D0020E1C60F5D71CA01F9ED890AC
:104328001C321CC017F0186A196A1A6A17C01AF0EA
:10433800196A186A176A17501D1218501E12195058
:104348001F121A5020121B50D8A416AE01D0208E6E
:104358001DC013F01EC014F01FC015F020C016F0C9
:104368001200000E286E000E276E000E216E000E41
:10437800206E02D01A4A1B2A010E266E1AC0F6FFBA
:104388001BC0F7FF0800F550200AD8B418D0F70E64
:104398001C6EFF0E1D6E1AC0F6FF1BC0F7FF08004B
:1043A800F5501E6E1F6A1C501E261D501F221F50DE
:1043B80004E1050E1E5CD8A002D0000E266E26C0B1
:1043C80022F0236A22502310D8B408D0D3D7000E85
:1043D800216E010E206E1A4A1B2A2ED01AC0F6FF33
:1043E8001BC0F7FF0800F5501C6E1D6A1D50000A1F
:1043F800D8A422D01C502B0AD8B4EDD7060AD8B4BA
:10440800E6D71AD027C013F028C014F0000E166E95
:104418000A0E156E24EC2EF01AC0F6FF1BC0F7FF2B
:104428000800F550135E000E145A300E1324276E40
:10443800000E1420286ECFD7D00E1C6EFF0E1D6EF6
:104448001AC0F6FF1BC0F7FF0800F5501E6E1F6A62
:104458001C501E261D501F221F5006E10A0E1E5C0E
:10446800D8B002D0010E01D0000E246E256A245067
:104478002510D8A4C7D720502110D8A40DD027C004
:104488001CF028C01DF01C1E1D1E1C4A1D2A1CC025
:104498001AF01DC01BF0120027C01AF028C01BF02C
:1044A800120021EE80F010EE23F0060EDBCFE3FFC2
:1044B800E806FCE220C02EF021C02FF02E502F106D
:1044C800D8A404D0230E2E6E000E2F6E2EC013F02B
:1044D8002FC014F00CEC2BF013C032F014C033F0E2
:1044E8003DC030F03EC031F031BE0ED03250305CAD
:1044F8003150800A226E3350800A2258D8B004D036
:1045080030C032F031C033F032C030F033C031F057
:104518003BC02CF03CC02DF03FA00DD016D0000EB3
:10452800166E200E156E1EC017F01FC018F03FEC57
:1045380027F0324A332A2C50325C3350800A226EDC
:104548002D50800A2258D8A0EAD7000E2B6E000EF4
:104558002A6E1ED02EC0F6FF2FC0F7FFF86A0E0E87
:10456800F76403D00800F55005D0F6CFE9FFF7CF80
:10457800EAFFEF50226E2250156E166A1EC017F021
:104588001FC018F03FEC27F02E4A2F2A2A4A2B2A60
:1045980030502A5C2B50800A226E3150800A2258F3
:1045A800D8A0D8D73FB00DD016D0000E166E200E6A
:1045B800156E1EC017F01FC018F03FEC27F0324AE6
:1045C800332A2C50325C3350800A226E2D50800AD8
:1045D8002258D8A0EAD732C01EF033C01FF012000C
:1045E800000E246E1AAE12D01A1E191E181E171E9F
:1045F800161E151E141E136C000E142215221622E8
:104608001722182219221A22010E246E22AE10D067
:10461800221E211E201E1F1E1E1E1D1E1C1E1B6C60
:10462800000E1C221D221E221F22202221222222AD
:104638001B501C101D101E101F10201021102210BE
:10464800D8B43CD0010E236E0AD0D8901B361C3645
:104658001D361E361F36203621362236232A22AE34
:10466800F4D71B50135C1C5014581D5015581E507D
:1046780016581F50175820501858215019582250B2
:104688001A58D8A010D01B50135E1C50145A1D5035
:10469800155A1E50165A1F50175A2050185A215092
:1046A800195A22501A5AD8902232213220321F32F7
:1046B8001E321D321C321B32232ED3D72450D8B4BD
:1046C80010D01A1E191E181E171E161E151E141E8F
:1046D800136C000E142215221622172218221922F2
:1046E8001A2213C013F014C014F015C015F016C028
:1046F80016F017C017F018C018F019C019F01AC032
:104708001AF0120016C123F017C124F018C125F0C1
:1047180019C126F013C023F014C024F015C025F0E9
:1047280016C026F08A0E176EFF0E186E23C019F0F9
:1047380024C01AF025C01BF026C01CF0180E05D0A6
:10474800D8901C321B321A321932E82EF9D7195078
:104758001724216E000E1820226E22BE0FD0225080
:1047680004E1200E215CD8A009D013C013F014C0B6
:1047780014F015C015F016C016F0120022BE06D0AF
:10478800225008E1090E215CD8B004D0000E226E38
:10479800010E216EFF0E176EFF0E186EFF0E196EBA
:1047A800FF0E1A6E2150E82A05D0D8901A32193215
:1047B80018321732E82EF9D717C01DF018C01EF0AE
:1047C80019C01FF01AC020F01D502314176E1E5078
:1047D8002414186E1F502514196E205026141A6EB2
:1047E8001750181019101A10D8B4BFD71D1C176EFF
:1047F8001E1C186E1F1C196E201C1A6E17502316CB
:1048080018502416195025161A50261623C013F0CE
:1048180024C014F025C015F026C016F0120013C0ED
:104828001AF014C01BF015C01CF016C01DF01706B6
:10483800D8A0180617280FE11828D8A40CD0000E05
:10484800146E000E136E12001A4A1B2A1C4A1D2AE7
:104858001706D8A018061AC0F6FF1BC0F7FFF86A9B
:104868000E0EF76403D00800F55005D0F6CFE9FF27
:10487800F7CFEAFFEF500009D8B427D01CC0F6FFE5
:104888001DC0F7FF0800F5500009D8B41ED0175016
:104898001810D8B41AD01CC0F6FF1DC0F7FF0800C6
:1048A800F5CF19F01AC0F6FF1BC0F7FFF86A0E0E15
:1048B800F76403D00800F55005D0F6CFE9FFF7CF2D
:1048C800EAFFEF501918D8B4BFD71AC0F6FF1BC0BB
:1048D800F7FFF86A0E0EF76403D00800F55005D00C
:1048E800F6CFE9FFF7CFEAFFEF50196E1CC0F6FFCD
:1048F8001DC0F7FF0800F550195C136E146AD8A0A4
:1049080014061200C0EC2FF00009D8B46BD066EC86
:104918002DF0166E0001C4511424D96EC55115200E
:10492800DA6E16C0DFFFC44BC52B400EC419C51183
:10493800D8A449D0000EC56F000EC46F44D0C4512E
:104948001424166EC5511520176EFF0E1624D96E45
:10495800FF0E1720DA6E0D0EDE18D8A443D0010E14
:1049680030D0000EC86FC4511424166EC5511520DE
:10497800176EFF0E1624D96EFF0E1720DA6E0A0E78
:10498800DE18D8A42FD0C4511424D96EC5511520CF
:10499800DA6E000EDF6E000EC56F000EC46F89A6BA
:1049A80002D0010E01D0000EFF0A166E16461646FA
:1049B800164689501618F70B1618896E010E120044
:1049C800000EC86F0FD0C851166E176A1750000A2C
:1049D800D8A4F6D71650000AD8B4B1D7010AD8B46B
:1049E800C0D7EED7000E1200FACF03F0FBCF04F0C9
:1049F800D9CF05F0DACF06F0F2BAF2A403D07CECF6
:104A08002DF051D0F2B8F2A203D0B3EC2FF04BD076
:104A1800F0BAF0A403D09BEC2FF045D0F0B6F0A08C
:104A280003D0ABEC2FF03FD0F0B8F0A203D0A3EC4A
:104A38002FF039D0A3B8A4A809D001D834D00500E4
:104A48000101FA6EEF51FD6EF05123D0A3BAA4AA6A
:104A580009D001D828D005000101FA6EED51FD6E8C
:104A6800EE5117D09DB89EA809D001D81CD00500DA
:104A78000101FA6EEB51FD6EEC510BD09DBA9EAA66
:104A88000DD001D810D005000101FA6EE951FD6E74
:104A9800EA51FE6EF850FF6EFA501200A0B2A1A2C1
:104AA80002D06BEC2BF006C0DAFF05C0D9FF04C0BA
:104AB800FBFF03C0FAFF4D921100000E13141B6E8A
:104AC800000E14141C6E800E15141D6E7F0E161425
:104AD8001E6E1B501C101D101E10D8A408D0000EEE
:104AE800136E000E146E000E156E000E166E000E7C
:104AF80017141B6E000E18141C6E800E19141D6EF0
:104B08007F0E1A141E6E1B501C101D101E10D8A4E8
:104B180008D0000E176E000E186E000E196E000EEB
:104B28001A6E16AE09D0136C141ED8B0142A151EAE
:104B3800D8B0152A800E16561AAE09D0176C181E52
:104B4800D8B0182A191ED8B0192A800E1A56000E85
:104B5800131A000E141A000E151A800E161A000EDB
:104B6800171A000E181A000E191A800E1A1A175062
:104B7800135C18501458195015581A501658D8B0B4
:104B880002D0D8901200D880120020EE23F0070E31
:104B9800DE6AE806FDE21B501C101D101E101F10D7
:104BA800201021102210D8B446D0010E2B6E0AD046
:104BB800D8901B361C361D361E361F362036213639
:104BC80022362B2A22AEF4D7D8902336243625361F
:104BD80026362736283629362A361B50135C1C50B1
:104BE80014581D5015581E5016581F50175820504D
:104BF80018582150195822501A58D8A011D01B50B3
:104C0800135E1C50145A1D50155A1E50165A1F5028
:104C1800175A2050185A2150195A22501A5A2380CC
:104C2800D8902232213220321F321E321D321C32DD
:104C38001B322B2EC9D723C013F024C014F025C073
:104C480015F026C016F027C017F028C018F029C0A4
:104C580019F02AC01AF012000001853586358C6FCC
:104C68008C51D8A409D0000E836F000E846F000EFB
:104C7800856F000E866F120083C087F084C088F0AD
:104C880085C089F086C08AF0200E05D0D8908A3376
:104C9800893388338733E82EF9D787518B6F858F0F
:104CA800FF0E8317FF0E8417FF0E8517000E861759
:104CB800960E8C5F8CAF0DD08C51800A970FD8A0C0
:104CC800D2D7D89086338533843383338C3FF9D752
:104CD8000DD01F0E8C6507D0C6D7D8908337843780
:104CE800853786378C078C51D8A4F7D78B51D8B421
:104CF80008D0861F851F841F836D000E842385239B
:104D0800862383C083F084C084F085C085F086C084
:104D180086F012001F502010D8A40DD0C0C01FF07C
:104D2800C1C020F01F502010D8A405D0000E1F6E5F
:104D3800000E206E12001FC018F020C019F021C00C
:104D48001AF022C01BF0DAEC29F018501F2619506F
:104D580020221FC0D9FF20C0DAFFDF50D8A40AD014
:104D6800000E0001C06F000EC16FC0C01FF0C1C0AF
:104D780020F012001FC018F020C019F021C01AF04E
:104D880022C01BF002EC2AF018501F240001C06F4B
:104D980019502020C16FC0C0D9FFC1C0DAFFDF5051
:104DA800D8B409D0C0C0D9FFC1C0DAFF000EDF6E89
:104DB800C04BC12B04D0000EC06F000EC16F1FC0C6
:104DC8001FF020C020F012001B501C101D101E10D8
:104DD8001F10201021102210D8B43CD0010E236ED1
:104DE8000AD0D8901B361C361D361E361F36203684
:104DF80021362236232A22AEF4D71B50135C1C50CE
:104E080014581D5015581E5016581F50175820502A
:104E180018582150195822501A58D8A010D01B5091
:104E2800135E1C50145A1D50155A1E50165A1F5006
:104E3800175A2050185A2150195A22501A5AD890E5
:104E48002232213220321F321E321D321C321B32D6
:104E5800232ED3D713C013F014C014F015C015F0C7
:104E680016C016F017C017F018C018F019C019F0BE
:104E78001AC01AF0120017501810D8B404D01750DE
:104E88001810D8A404D0155096EC2FF0120020EE7C
:104E980004F01750D9261850DA22DE50DE10D8B4A4
:104EA80016D020EE04F01750D9261850DA2210EE4A
:104EB80002F01750E1261850E222DE50E65CE65078
:104EC800800A1D6EDE50800A1D58D8B0120020EEF0
:104ED80002F01750D9261850DA22DECF19F0DDCFAC
:104EE8001AF017C0D9FF18C0DAFFDECF1BF0DDCFEC
:104EF8001CF019501B24D96E1A501C20DA6E15C0EC
:104F0800DFFF20EE02F01750D9261850DA22DE2AE9
:104F1800000EDD2212003FA00AD027C01EF028C0D4
:104F28001FF025C020F026C021F01BEC2CF02ABE73
:104F380005D029C02EF02AC02FF004D0000E2F6E05
:104F4800000E2E6E000E2D6E000E2C6E0CD0000E74
:104F5800166E200E156E25C017F026C018F03FEC0F
:104F680027F02C4A2D2A2E502C5C2D50800A2B6EAF
:104F78002F50800A2B58D8A0EAD73FB00AD027C0B4
:104F88001EF028C01FF025C020F026C021F01BEC21
:104F98002CF027C013F028C014F00CEC2BF02E5086
:104FA8001324256E2F501420266E12002050211035
:104FB800D8B441D020C013F021C014F00CEC2BF071
:104FC80013C022F014C023F02BD01EC013F01FC052
:104FD80014F020C015F021C016F022C017F023C02D
:104FE80018F013EC24F013501410D8A405D01EC0E8
:104FF8001EF01FC01FF01200010E1E24136E000EBB
:105008001F20146E20C0F6FF21C0F7FF0800F550DE
:10501800156E166A6FEC2CF013C01EF014C01FF04A
:105028001E501F10D8B407D01EC0D9FF1FC0DAFF0A
:10503800DF50D8A4CAD7000E1E6E000E1F6E1200D5
:10504800000E13141B6E000E14141C6E800E151423
:105058001D6E7F0E16141E6E1B501C101D101E1088
:10506800D8A408D0000E136E000E146E000E156E34
:10507800000E166E000E17141B6E000E18141C6E10
:10508800800E19141D6E7F0E1A141E6E1B501C10F4
:105098001D101E10D8A408D0000E176E000E186E32
:1050A800000E196E000E1A6E175013180AE11850E8
:1050B800141807E11950151804E11A501618D8B435
:1050C80002D0D8901200D8801200000E1E6E000E7A
:1050D8001D6E1AC0F6FF1BC0F7FFF86A0E0EF764C4
:1050E80003D00800F55005D0F6CFE9FFF7CFEAFF67
:1050F800EF500009D8B41CD01AC0F6FF1BC0F7FF48
:10510800F86A0E0EF76403D00800F55005D0F6CF04
:10511800E9FFF7CFEAFFEF5053EC2CF01A4A1B2AAD
:105128001D4A1E2A1E5004E1400E1D5CD8A0D1D78E
:105138001C50D8B41200000E196EC80E186EF4EC8C
:105148002EF01200060EF66E520EF76E000EF86E76
:1051580001EE80F010EE59F00900F5CFEEFFE550B2
:10516800E150FAE102EE00F0C00EEE6AE806FDE159
:1051780001EE00F0800EEE6AE806FDE100EEC0F0F8
:105188000A0EEE6AE806FDE100EE3BF0100EEE6A4C
:10519800E806FDE14D904D92000EF86E000136EFE5
:1051A8002FF0010E196ED00E156EFF0E166E13C07D
:1051B80017F014C018F0155017261650182218505A
:1051C80004E10A0E175CD8A016D09F0E156EFF0ECC
:1051D800166E200E1310176E000E1410186E155050
:1051E800172616501822185004E1060E175CD8A08E
:1051F80002D0000E196E19C013F0146A1200286E3E
:10520800756C6C29002000A47D107D000000000052
:105218000000000000000000000000000000000086
:105228000000000000000000000000000000000076
:105238000000000000000000000000000000000066
:105248000000000000000000000000000000010055
:07525800000000000000004F
:10526000000E1B6E000E1C6E000E1D6E000E1E6EDC
:1052700013A008D017501B2618501C2219501D22AD
:105280001A501E22D8901736183619361A36D8906A
:105290001632153214321332135014101510161022
:1052A000D8A4E6D71BC013F01CC014F01DC015F025
:1052B0001EC016F01200A3C0A7F0A4C0A8F0000EF4
:1052C0000001C36F000EC26F13D0A1C07CF0A2C05A
:1052D0007DF0A70E7E6F000E7F6FA5C080F0A6C088
:1052E00081F0C0EC07F000017C51C2277D51C3233F
:1052F000A7C0F6FFA8C0F7FF0800F5500009D8A422
:10530000E4D7C2C0A1F0C3C0A2F01200000E096E23
:105310000950020D000EF324D96E010EF420DA6E4E
:10532000DE50DE10D8B40BD00950020D000EF3246D
:10533000D96E010EF420DA6EDE06000EDD5A092A5F
:10534000060E0964E5D789A202D0010E01D0000E35
:10535000FF0A076E074689500718FD0B0718896E6C
:105360001200AD0E0001B96F000EBA6FA9C0B3F004
:10537000AAC0B4F0000EB66F000EB56F000EB86F85
:10538000000EB76FB30EA16F000EA26FABC0A3F0FB
:10539000ACC0A4F0B90EA56F000EA66F5BEC29F0AF
:1053A0000001B551A925D96EB651AA21DA6E000EB9
:1053B000DF6E1200000E1E6E000E1D6E04D0184A25
:1053C000192A1D4A1E2A18C0D9FF19C0DAFFDF505A
:1053D000D8B413D01AC013F01BC014F018C0D9FFF2
:1053E00019C0DAFFDF501C6E1C50156E166A6FEC88
:1053F0002CF013501410D8A4E2D71DC018F01EC012
:1054000019F01200000E1E6E000E1D6E04D0184A18
:10541000192A1D4A1E2A18C0D9FF19C0DAFFDF5009
:10542000D8B413D01AC013F01BC014F018C0D9FFA1
:1054300019C0DAFFDF501C6E1C50156E166A6FEC37
:105440002CF013501410D8B4E2D71DC018F01EC0B1
:1054500019F01200A39A200E136E5C0E146E87ECE6
:105460002FF0A398240E136E5B0E146E82EC2FF0B7
:10547000080EB96E900EA66E260EBA6E820E7B6E68
:10548000060E7C6E000E4A6E000E496E400E000144
:10549000CB6F000E486E000E476E000E466EA38A5C
:1054A00012009D9A4E0E136E570E146E91EC2FF053
:1054B0009D98500E136E5B0E146E8CEC2FF0080E40
:1054C000A76E900EAB6E240EAC6E820EAF6E060E03
:1054D0007D6E000E456E000E446E400E0001CA6FD8
:1054E000000E436E000E426E000E416E9D8A120049
:1054F0003B503C10D8A405D03BC033F03CC034F046
:1055000006D0FF0E3B24336EFF0E3C20346E32C0BB
:1055100060F1000E0101616F30C025F031C026F04E
:10552000600E276E010E286E33C029F034C02AF0B9
:105530008FEC27F025C030F026C031F01200F29237
:10554000F19C920E136E5E0E146E7DEC2FF0F288BD
:10555000F090F19A5E0E136E5F0E146E78EC2FF0E1
:10556000F086F092F1984E0E136E5F0E146E73EC8F
:105570002FF0F088F094F1963E0E136E5F0E146ECD
:105580006EEC2FF0F08A12009F0E1B6EFF0E1C6E49
:1055900019C01DF01AC01EF01B501D261C501E22E3
:1055A0001E5006E11A0E1D5CD8B002D0010E01D0CB
:1055B000000E1F6E206A1F502010D8B405D05F0E59
:1055C0001914196E1A6A120019C019F01AC01AF0CB
:1055D0001200000E271A000E281A000E291A800E3B
:1055E0002A1A23C013F024C014F025C015F026C0D9
:1055F00016F027C017F028C018F029C019F02AC0EB
:105600001AF007EC19F013C023F014C024F015C0F1
:1056100025F016C026F0120013C015F014C016F0C5
:1056200002D0134A142A13C0F6FF14C0F7FFF86A19
:105630000E0EF76403D00800F55005D0F6CFE9FF51
:10564000F7CFEAFFEF500009D8A4EBD71550135C51
:10565000136E16501458146E1200D59CE70ED76EB8
:10566000950ED66E000E4C6E600E4B6ED650D7CF98
:1056700015F0166A15C016F0156A15104B6E165007
:105680004C6EF294F28A120E136E570E146E69EC81
:105690002FF0970ED56E1200010E196E200E131802
:1056A0001410D8B414D0F70E156EFF0E166E13C07A
:1056B00017F014C018F0155017261650182218505D
:1056C00004E1050E175CD8A002D0000E196E19C0B7
:1056D00013F0146A1200A1920001C9510101E325DF
:1056E000016E000EE421026E10EC2FF00001C92BB8
:1056F0000101E151E211D8B4120001D812000500F5
:10570000FA6EE151FD6EE251FE6EF850FF6EFA50F6
:1057100012000101D551D8B404D0D52F02D0010E0A
:10572000D16FD651D8B404D0D62F02D0010ED26F8B
:10573000D751D8B404D0D72F02D0010ED36FD8518F
:10574000D8B41200D82F1200010ED46F1200ABA2F1
:1057500002D0AB98AB88AECF01F02D0E0118D8B4B3
:1057600012003E0E0118D8B41200000E4324D96E68
:10577000DA6A020EDA2201C0DFFF432A3F0E4364D9
:1057800002D0000E436E412A1200000EB06EF00EE1
:10579000B36E600EB26EB250B3CF15F0166A15C07C
:1057A00016F0156A15100101E36F1650E46FA1920F
:1057B000A082CA0E136E5D0E146E5FEC2FF0010E08
:1057C000B16E1200000EAA6EE00ECF6EC00ECE6E4D
:1057D000CE50CFCF15F0166A15C016F0156A151009
:1057E0000101E76F1650E86F9E909D806E0E136E5C
:1057F0005F0E146E64EC2FF0010ECD6E1200000EE1
:105800008D6E000E8C6E0F0E896E000E8A6E000E6D
:105810008B6E070E966E800E926E9368970E946E46
:10582000BF0E956EE00E0F015D6F7A0E5C6F010E7C
:105830005B6FF19E1200000E246E000E236E0BD0E3
:1058400022C015F0166A20C017F021C018F03FECF6
:1058500027F0234A242A23501E24D96E24501F20C7
:10586000DA6EDF50226E2250D8B41200E9D7136EE0
:105870000001CB51D8B4FCD7A3B803D013C079FF33
:1058800010D0A398800E4A24D96EDA6A020EDA226A
:1058900013C0DFFF4A2A3F0E4A6402D0000E4A6E50
:1058A000CB07A3881200136E0001CA51D8B4FCD7ED
:1058B0009DB803D013C0ADFF10D09D98400E452475
:1058C000D96EDA6A020EDA2213C0DFFF452A3F0ED4
:1058D000456402D0000E456ECA079D88120013C0B1
:1058E000D9FF14C0DAFF1550DE18D8A405D013C0B4
:1058F00013F014C014F0120013C0D9FF14C0DAFF63
:10590000134A142ADF50D8A4EAD7000E136E000EF3
:10591000146E120015C017F016C018F013C019F05D
:1059200014C01AF017C0D9FF18C0DAFF174A182A96
:1059300019C0E1FF1AC0E2FF194A1A2ADFCFE7FFB8
:10594000E750D8B41200EED79F0E156EFF0E166EFC
:10595000200E1310176E000E1410186E1550172617
:1059600016501822185006E11A0E175CD8B002D053
:10597000010E01D0000E136E146A120026BE05D06F
:10598000265010E12504D8B00DD025C027F026C040
:1059900028F0271E281E274A282A27C025F028C0BD
:1059A00026F0120025C025F026C026F012009F0E1A
:1059B000156EFF0E166E13C017F014C018F01550B8
:1059C000172616501822185006E11A0E175CD8B088
:1059D00002D0010E01D0000E136E146A1200BF0E29
:1059E000156EFF0E166E13C017F014C018F0155088
:1059F000172616501822185006E11A0E175CD8B058
:105A000002D0010E01D0000E136E146A1200D00EE7
:105A1000156EFF0E166E13C017F014C018F0155057
:105A2000172616501822185006E10A0E175CD8B037
:105A300002D0010E01D0000E136E146A12000DD0B8
:105A400066EC2DF0C0EC2FF00009D8A406D0000EB3
:105A5000196E010E186EF4EC2EF0C0EC2FF0000958
:105A6000D8A4EED7ABA21200AB98AB8812009E90E0
:105A7000E7C107F0E8C108F002EC2FF00101E551A1
:105A8000E611D8B4120001D812000500FA6EE551F3
:105A9000FD6EE651FE6EF850FF6EFA501200135084
:105AA000141015101610D8B408D0000E131A000EDA
:105AB000141A000E151A800E161A13C013F014C013
:105AC00014F015C015F016C016F012004150D8B4ED
:105AD000FDD7000E4224D96EDA6A020EDA22DF50B8
